:0A0C97000001020203030404050536
:10048800E4F52CF52BF52AF529C203C200C202C2F5
:10049800011209AA7E097F008E3C8F3D75440975BB
:1004A8004512753A09753B1C75420975433C7546FA
:1004B8000975475CEE54C07003020589752D0075F7
:1004C8002E808E2F8F30C374A89FFF74099ECF246F
:1004D80002CF3400FEE48F288E27F526F525F52473
:1004E800F523F522F521AF28AE27AD26AC25AB24A0
:1004F800AA23A922A821C312079E5033E530252438
:10050800F582E52F3523F583E0FFE52E2524F582D6
:10051800E52D3523F583EFF0E5242401F524E435B2
:1005280023F523E43522F522E43521F52180B7852A
:100538002D3C852E3D74002480FF740934FFFEC3D2
:10054800E5459FF545E5449EF544C3E53F9FF53FE6
:10055800E53E9EF53EC3E5419FF541E5409EF540E9
:10056800C3E53B9FF53BE53A9EF53AC3E5439FF566
:1005780043E5429EF542C3E5479FF547E5469EF5AC
:1005880046D2E843D82090E668E04409F090E65C5B
:10059800E0443DF0D2AF90E680E020E105D20512BC
:1005A8000B7990E680E054F7F0538EF8C203120CF2
:1005B800B7300105120080C2013003F21208FE5064
:1005C800EDC203120BFF20001690E682E030E7042C
:1005D800E020E1EF90E682E030E604E020E0E4127B
:0705E8000BA8120CAD80C747
:0B0C8C0090E509E030E402C322D3220F
:1000800090E6B9E0700302013F1470030201BC2442
:10009000FE700302023F24FB700302013914700357
:1000A00002013314700302012714700302012D248E
:1000B0000560030202A3120CAF40030202AF90E6F8
:1000C000BBE024FE602714603824FD601114602713
:1000D00024067050E53C90E6B3F0E53D803C120C00
:1000E0008C503EE54490E6B3F0E545802DE53E902A
:1000F000E6B3F0E53F8023E54090E6B3F0E54180CC
:100100001990E6BAE0FF120BD4AA06A9077B01EA10
:10011000494B600DEE90E6B3F0EF90E6B4F00202CA
:10012000AF02029E02029E120C7A0202AF120CA1D2
:100130000202AF120AC80202AF120C680202AF122A
:100140000CB140030202AF90E6B8E0247F601514C2
:10015000601924027063A200E43325E0FFA202E4E8
:10016000334F8041E490E740F0803F90E6BCE0549C
:100170007EFF7E00E0D394807C0040047D018002FD
:100180007D00EC4EFEED4F2497F582740C3EF58316
:10019000E493FF3395E0FEEF24A1FFEE34E68F8277
:1001A000F583E0540190E740F0E4A3F090E68AF094
:1001B00090E68B7402F00202AF02029E120CB34072
:1001C000030202AF90E6B8E024FE6016240260034A
:1001D0000202AF90E6BAE0B40105C2000202AF022B
:1001E000029E90E6BAE0705590E6BCE0547EFF7E39
:1001F00000E0D394807C0040047D0180027D00EC0F
:100200004EFEED4F2497F582740C3EF583E493FF88
:100210003395E0FEEF24A1FFEE34E68F82F583E014
:1002200054FEF090E6BCE05480131313541FFFE01B
:10023000540F2F90E683F0E04420F08072805F122C
:100240000CB5506B90E6B8E024FE60192402704EA5
:1002500090E6BAE0B40104D200805490E6BAE064BB
:1002600002604C803990E6BCE0547EFF7E00E0D313
:1002700094807C0040047D0180027D00EC4EFEED08
:100280004F2497F582740C3EF583E493FF3395E099
:10029000FEEF24A1FFEE34E68F82F583800D90E619
:1002A000A080081202B7500790E6A0E04401F09049
:0602B000E6A0E04480F02E
:0102B6002225
:03003300020CA913
:040CA90053D8EF32FB
:1005EF00C104021300004210AC00004110AB000424
:0B05FF0008077352F4040F02DC88951B
:1009AA0090E600E054E74410F000000090E601E011
:1009BA004440F090E61274A0F0000000E490E613C0
:1009CA00F000000090E61474E0F0000000E490E605
:1009DA0015F090E6047480F00000007402F0000044
:1009EA00007406F0000000E4F000000090E618F041
:1009FA000000007410F000000090E61A7408F0007D
:100A0A00000043AF011206C190E6D2E054FCF0E0C8
:100A1A004401F0E490E670F075B2FF5380FC438025
:100A2A0002D200F5BB0000005380FB90E601E0F51E
:020A3A00172281
:010CB700221A
:0208FE00D32203
:020CAD00D32250
:020CAF00D3224E
:100AC80090E680E030E71900000090E6247401F019
:100AD80000000090E62574FEF0000000D2048016A5
:100AE800000000E490E624F000000090E625743C45
:0E0AF800F0000000C20490E6BAE0F51AD32226
:100C680090E740E51AF0E490E68AF090E68B04F00D
:020C7800D32285
:080CA10090E6BAE0F50ED32243
:100C7A0090E740E50EF0E490E68AF090E68B04F007
:020C8A00D32273
:020CB100D3224C
:020CB300D3224A
:020CB500D32248
:1002B7007532017533E475340090E6B8E0F535A37F
:1002C700E0F990E6BDE0FE90E6BCE07C002400F596
:1002D70037EC3EF53690E6BBE0FE90E6BAE0240048
:1002E700FFEC3EAD07FC90E6BFE0FE90E6BEE07A8D
:1002F700002400F539EA3EF538AF01E91207C203D9
:100307005742035D43036644036C45037250037A07
:1003170052038A5303C054040955043756044B57F4
:100327000450600459610462C0033AD00345D10008
:1003370000048490E604E0F531433180800990E6BB
:1003470004E0F53153317F000000E531F002048607
:10035700E4F5BB02044690E6F574FFF00204864319
:1003670080010204865380FE020486AF05EDF58006
:10037700020486AF05ED441E5401F51790E601F01F
:1003870002048690E6A0E020E1F990E740E50BF053
:10039700FFAE0AAD09AC0878081207AFA3EFF0AFBC
:1003A7000BAE0AAD09AC0878101207AFA3EFF0AF98
:1003B7000BAE0AAD09AC08803490E6A0E020E1F965
:1003C70090E740E512F0FFAE11AD10AC0F780812C0
:1003D70007AFA3EFF0AF12AE11AD10AC0F7810124C
:1003E70007AFA3EFF0AF12AE11AD10AC0F78181234
:1003F70007AFA3EFF0E490E68AF090E68B7404F081
:10040700807D90E6F574FFF0E5BB30E7FB90E604EE
:100417007480F00000007402F00000007406F00021
:100427000000E4F000000090E601E04440F0800F97
:10043700AF05EDAB32AA33A93490004512077C0013
:100447000000803B1209AA803690E601E04480F064
:10045700802D90E601E0547FF0802490E60174FE41
:10046700F000000090E6F504F000000090E680E060
:100477004408F0E054FDF0E054F7F080FED322C3C7
:010487002252
:1007E800C0E0C083C082D2015391EF90E65D7401EE
:0807F800F0D082D083D0E03282
:100C3C00C0E0C083C0825391EF90E65D7404F0D0A5
:060C4C0082D083D0E032EB
:100C5200C0E0C083C0825391EF90E65D7402F0D091
:060C620082D083D0E032D5
:100B4300C0E0C083C08285423E85433F853F8285A6
:100B53003E83A37402F0853A40853B4185418285FB
:100B63004083A37407F05391EF90E65D7410F0D0C7
:060B730082D083D0E032C5
:100C2400C0E0C083C082D2035391EF90E65D7408A4
:080C3400F0D082D083D0E03241
:100B0600C0E0C083C08290E680E030E720853A3EB0
:100B1600853B3F853F82853E83A37402F085424034
:100B2600854341854182854083A37407F05391EF45
:0D0B360090E65D7420F0D082D083D0E032D4
:010CB8003209
:010CB9003208
:010CBA003207
:010CBB003206
:010CBC003205
:010CBD003204
:010CBE003203
:010CBF003202
:010CC0003201
:010CC1003200
:010CC20032FF
:010CC30032FE
:010CC40032FD
:010CC50032FC
:010CC60032FB
:010CC70032FA
:010CC80032F9
:010CC90032F8
:010CCA0032F7
:010CCB0032F6
:010CCC0032F5
:010CCD0032F4
:010CCE0032F3
:010CCF0032F2
:010CD00032F1
:010CD10032F0
:010CD20032EF
:010CD30032EE
:010CD40032ED
:010CD50032EC
:010CD60032EB
:010CD70032EA
:010CD80032E9
:010CD90032E8
:010CDA0032E7
:010CDB0032E6
:100900001201000200000040B404041000000102C3
:1009100000010A0600020000004001000902200058
:1009200001010080320904000002FF0000000705F9
:1009300002020002000705860200020009022000F0
:1009400001010080320904000002FF0000000705D9
:10095000020240000007058602400000040309046B
:10096000360354006F006D002000570069006D00D1
:100970006D0065006E0068006F0076006500200065
:1009800045006C0065006300740072006F006E002B
:1009900069006300730012034600580032004C00E7
:0A09A0005000440044005300000022
:03004300020800B0
:03005300020800A0
:100800000207E800020C5200020C3C00020C24001B
:10081000020B4300020B0600020CB800020CB900E8
:10082000020CBA00020CBB00020CBC00020CBD00A2
:10083000020CBE00020CBF00020CC000020CC10082
:10084000020CC200020CB900020CC300020CC4006E
:10085000020CC500020CC600020CC700020CC80046
:10086000020CC900020CB900020CB900020CB9005C
:10087000020CCA00020CCB00020CCC00020CCD0012
:10088000020CCE00020CCF00020CD000020CD100F2
:10089000020CD200020CD300020CD400020CD500D2
:1008A000020CD600020CD700020CD800020CD900B2
:0808B000020CDA00020CDB006F
:100BA80090E682E030E004E020E60B90E682E03058
:100BB800E119E030E71590E680E04401F07F147E0B
:0C0BC800001208B890E680E054FEF02215
:100B790030050990E680E0440AF0800790E680E0BD
:100B89004408F07FDC7E051208B890E65D74FFF03A
:0F0B990090E65FF05391EF90E680E054F7F02282
:020BD400A9076F
:100BD600AE46AF478F828E83A3E064037017AD01E4
:100BE60019ED7001228F828E83E07C002FFDEC3E92
:080BF600FEAF0580DFE4FEFF05
:010BFE0022D4
:100BFF0090E682E044C0F090E681F0438701000068
:040C0F0000000022BF
:1008B8008E318F3290E600E054187012E532240130
:1008C800FFE43531C313F531EF13F532801590E6A7
:1008D80000E05418FFBF100BE53225E0F532E53192
:1008E80033F531E5321532AE31700215314E6005FF
:0608F800120C1380EE2239
:100C13007400F58690FDA57C05A3E582458370F9F4
:010C230022AE
:10060A0060801000010101010101010702020202DA
:10061A0002020202000000000000000000000000C8
:10062A000000003F0101010101010107020202026B
:10063A0002020202000000000000000000000000A8
:10064A000000003F0101010101F4B007020606069D
:10065A000606030201010101010002000000000078
:10066A000000363F0138010101010107020D0000B7
:10067A00000000020000000000000000002D000041
:10068A000000003F60241087000000000000000006
:10069A000000000000000000000000000000000050
:1006AA00000000000000000000000000471080E089
:0606BA00100000FE4A00E2
:1006C10090E60174FEF090E6F504F0901080E09061
:1006D100E6F3F0901081E090E6C3F0901082E09094
:1006E100E6C1F0901083E090E6C2F0901085E090B2
:1006F100E6C0F0901086E090E6F4F075AF07741054
:10070100F59A7400F59B759DE4E4F59EFF90E67BF8
:10071100E090E67CF00FBF80F490E67174FFF0F595
:10072100B490E672E04480F043B680000000E490AB
:10073100E6C4F000000090E6C5F0901087E090E676
:10074100C6F0901088E090E6C7F0901089E090E63E
:10075100C8F090108AE090E6C9F090108BE090E626
:10076100CAF090108CE090E6CBF090108DE090E60E
:0A077100CCF090108EE090E6CDF081
:01077B00225B
:03000000020A3CB5
:0C0A3C00787FE4F6D8FD758147020A833C
:10077C00F8BB010DE58229F582E5833AF583E8F0B3
:10078C00225006E92582C8F622BBFE05E92582C85F
:02079C00F22247
:10079E00EB9FF5F0EA9E42F0E99D42F0E89C45F0B1
:0107AE002228
:1007AF00E8600FECC313FCED13FDEE13FEEF13FF28
:0307BF00D8F1224C
:1007C200D083D082F8E4937012740193700DA3A3C6
:1007D20093F8740193C0E0E8C0E022740293686069
:0607E200EFA3A3A380DFDA
:100A4800020488E493A3F8E493A34003F68001F238
:100A580008DFF48029E493A3F85407240CC8C333AF
:100A6800C4540F4420C8834004F456800146F6DF7E
:100A7800E4800B01020408102040809005EFE47E1A
:100A8800019360BCA3FF543F30E509541FFEE49373
:100A9800A360010ECF54C025E060A840B8E493A33A
:100AA800FAE493A3F8E493A3C8C582C8CAC583CA65
:100AB800F0A3C8C582C8CAC583CADFE9DEE780BE1D
:0106C0000039
:00000001FF
